:100000000C9434000C9448000C9446000C94460068
:100010000C9446000C9446000C9446000C94460048
:100020000C9446000C9446000C9446000C948B00F3
:100030000C9446000C9446000C9446000C94460028
:100040000C9446000C9446000C9446000C94460018
:100050000C9446000C9446000C9446000C94460008
:100060000C9446000C94460011241FBECFEFD8E03C
:10007000DEBFCDBF11E0A0E0B1E001C01D92A13014
:10008000B107E1F70E94A0000C94F5000C94000069
:100090001F920F920FB60F9211242F933F935F93ED
:1000A0006F937F938F939F93AF93BF93209184001F
:1000B00030918500283C3105F0F0109285001092B7
:1000C000840081E0243F3807B0F48091000190E083
:1000D000880F991F67E070E00E94CE0080930001B6
:1000E0002F55314018F0816080930001833088F0F3
:1000F000843079F05998BF91AF919F918F917F9102
:100100006F915F913F912F910F900FBE0F901F90B5
:100110001895599AF0CF1F920F920FB60F92112493
:100120008F939F9310920001599A85B192E089278D
:1001300085B99F918F910F900FBE0F901F901895CA
:1001400092E09AB984E08BB983E084B915B89093B2
:10015000690021E02DBB90936F0080E293E09093C3
:10016000890080938800109285001092840020936B
:100170008100789424EC39E062E044EF51E02115ED
:10018000310529F485B1862785B924EC39E0CA0107
:100190000197F1F721503040D1F7F4CF97FB092EAA
:1001A00007260AD077FD04D00CD006D000201AF420
:1001B000709561957F4F0895F6F7909581959F4FC3
:1001C0000895AA1BBB1B51E107C0AA1FBB1FA6179E
:1001D000B70710F0A61BB70B881F991F5A95A9F7F0
:0E01E00080959095BC01CD010895F894FFCF55
:00000001FF
