:100000000C9434000C9448000C9446000C94460068
:100010000C9446000C9446000C9446000C94460048
:100020000C9446000C9446000C9446000C94780006
:100030000C9446000C9446000C9446000C94460028
:100040000C9446000C9446000C9446000C94460018
:100050000C9446000C9446000C9446000C94460008
:100060000C9446000C94460011241FBECFEFD8E03C
:10007000DEBFCDBF11E0A0E0B1E001C01D92A33012
:10008000B107E1F70E9432010C94CA010C94000000
:100090001F920F920FB60F9211242F933F938F93BD
:1000A0009F9320918400309185002E3B3105A8F06C
:1000B000109285001092840080910201880F867052
:1000C000809302012155314018F081608093020134
:1000D000833060F0843051F059989F918F913F9117
:1000E0002F910F900FBE0F901F901895599AF5CF32
:1000F0001F920F920FB60F9211248F939F938091AE
:100100000001882351F410920201599A9F918F9116
:100110000F900FBE0F901F9018958BB190EC892710
:100120008BB9809101018F5F809301019F918F9125
:100130000F900FBE0F901F9018951092010180FF35
:1001400021C08FE890E09093890080938800599AAD
:1001500044E720918400309185008091880090913F
:1001600089002817390748F080918800909189000C
:1001700001979093850080938400809101018417FA
:10018000E0F3089581EC90E09093890080938800DB
:10019000599846E5DECFEF92FF920F931F93082FF9
:1001A00081E00E949D0080E00E949D00FF2410E0FD
:1001B000EE24E39401C0069500FDFE24802F0E94EA
:1001C0009D001F5F1830B9F78F2D0E949D0081E0C0
:1001D0000E949D001F910F91FF90EF900895FF9254
:1001E0000F931F93CF93DF93F82E192F062F5E9A4C
:1001F0005F988AB1806C8AB91DBA81E08093000152
:1002000010928500109284000E949D00002341F10D
:100210008F2D912F9C01E90110E088810E94CB0075
:100220008991180F9E012F192017B8F3812F8195FE
:100230000E94CB008BB18F738BB98AB18F738AB94F
:100240001092000182EE91E09093890080938800E3
:1002500081E08DBBDF91CF911F910F91FF900895A9
:1002600080E0E6CF6F927F928F929F92AF92BF9283
:10027000CF92DF92EF92FF920F931F93DF93CF9372
:10028000CDB7DEB728970FB6F894DEBF0FBECDBF4F
:1002900092E09AB980E388B95A9A9093690081E014
:1002A0008DBB90936F0082EE91E0909389008093D4
:1002B0008800109285001092840089E0809381006C
:1002C000789428EC30E06E010894C11CD11CE5E064
:1002D000AE2EB12CAC0EBD1E70ECF72E65E4E62EF2
:1002E0005FE8952E04EF11E04CE8842E90E4792E1F
:1002F00085E0682E2115310571F5359B32C03499A2
:1003000028C0F9821A82EB829C82C60164E00E94B6
:10031000EF0028E037E0C8010197F1F721503040A5
:10032000D1F7FD821E82EF828886C50164E00E94BB
:10033000EF0020ED37E0C8010197F1F72150304080
:10034000D1F720ED37E0C8010197F1F72150304097
:10035000D1F728EC30E0C8010197F1F72150304087
:10036000C9CF79821A826B82FC82C60164E00E9446
:10037000EF0020ED37E0C8010197F1F72150304040
:10038000D1F720ED37E0C8010197F1F72150304057
:08039000D1F7B5CFF894FFCFBF
:00000001FF
