:1000000009C016C015C014C013C013C040C010C032
:100010000FC00EC011241FBECFE9CDBF10E0A0E677
:10002000B0E001C01D92A336B107E1F7C7D057C1B8
:10003000E7CF1F920F920FB60F9211242F933F9389
:100040008F939F9382B7282F30E02B353105A0F096
:1000500012BE90916200990F967090936200223ABE
:10006000310528F0892F816080936200982F9330AA
:1000700060F0943051F0C4989F918F913F912F91EF
:100080000F900FBE0F901F901895C49AF5CF1F9236
:100090000F920FB60F9211248F939F93809160005F
:1000A000882351F410926200C49A9F918F910F900F
:1000B0000FBE0F901F90189588B393E0892788BBD7
:1000C000809161008F5F809361009F918F910F906D
:1000D0000FBE0F901F9018951092610080FF10C006
:1000E00084E486BFC49A25E792B786B7981718F0BC
:1000F00086B7815082BF809161008217E0F3089536
:100100008CE586BFC49826E5EFCFEF92FF920F9360
:100110001F93082F81E0E0DF80E0DEDFFF2410E0A6
:10012000EE24E39401C0069500FDFE24802FD4DF69
:100130001F5F1830C1F78F2DCFDF81E0CDDF1F911A
:100140000F91FF90EF900895FF920F931F93CF931D
:10015000DF93F82E192F062FC19AC09887B38360BA
:1001600087BB18B881E08093600012BEB5DF002322
:1001700019F18F2D912F9C01E90110E08881C5DFD5
:100180008991180F9E012F192017C0F3812F819597
:10019000BCDF88B38C7F88BB87B38C7F87BB109212
:1001A000600087EE86BF88B18A6088B9DF91CF9101
:1001B0001F910F91FF90089580E0EACF4F925F92D8
:1001C0006F927F928F929F92AF92BF92CF92DF9267
:1001D000EF92FF920F931F93DF93CF93CDB7DEB7CC
:1001E00028970FB6F894DEBF0FBECDBF81E681BF62
:1001F00080E187BB8CE088BB84B3836084BB88B11B
:100200008A6088B984E089BF87EE86BF12BE82E02B
:100210008FBD81E083BF78945E010894A11CB11C5E
:1002200075E0872E912C8C0E9D1E60E8E62E6BEB00
:10023000F62E50E4C52E45E0742E30ECD32E00EFA0
:1002400010E025E4622E9FE8592E8CE8482E02C06B
:10025000B39B1EC0C7010197F1F7B299F9CFC982CC
:100260001A827B82DC82C50164E06EDF20ED37E01C
:10027000C8010197F1F721503040D1F720ED37E068
:10028000C8010197F1F721503040D1F7B399E2CF7F
:10029000D9821A826B825C82C50164E055DF28E056
:1002A00037E0C8010197F1F721503040D1F7DD82E6
:1002B0001E826F824886C40164E046DF20ED37E08D
:1002C000C8010197F1F721503040D1F720ED37E018
:1002D000C8010197F1F721503040D1F7BBCFF89416
:0202E000FFCF4E
:00000001FF
